:100000000C9464000C948C000C948C000C948C0068
:100010000C948C000C948C000C948C000C948C0030
:100020000C948C000C948C000C948C000C948C0020
:100030000C948C000C948C000C948C000C948C0010
:100040000C94660B0C948C000C9431080C946D0885
:100050000C948C000C948C000C948C000C948C00F0
:100060000C948C000C948C0000000007000201002E
:100070000003040600000000000000000102040864
:100080001020408001020408102001020408102002
:10009000040404040404040402020202020203032E
:1000A0000303030300000000250028002B000000CC
:1000B0000000240027002A000A057A072809E5091C
:1000C000CB0DB90FC40F971611241FBECFEFD8E088
:1000D000DEBFCDBF12E0A0E0B1E0EEEDF4E302C080
:1000E00005900D92A43AB107D9F713E0A4EAB2E063
:1000F00001C01D92AB3CB107E1F710E0C8ECD0E0C5
:1001000004C02297FE010E94AE17C83BD107C9F771
:100110000E9478090C946D1A0C940000CF93DF9321
:10012000EC0182E090E00E94BE17888399831A82D6
:10013000DF91CF910895EF92FF920F931F93CF938A
:10014000DF937C01C0E0D0E011C0FE01EE0FFF1F85
:10015000E80FF91F008111810115110531F0C80167
:100160000E948305C8010E9487092196F701228118
:1001700030E080819181C217D3073CF3009741F0B2
:10018000DF91CF911F910F91FF90EF900C94591830
:10019000DF91CF911F910F91FF90EF900895CF9233
:1001A000DF92FF920F931F93CF93DF931F92CDB7F0
:1001B000DEB76C0110E016C0D601ED91FC91B2E003
:1001C0001B9FE00DF11D1124F08001818F2D902FD8
:1001D00069830E9494056981861303C08F2D902F37
:1001E00005C01F5FF6018281181730F30F90DF9171
:1001F000CF911F910F91FF90DF90CF900895EF92D4
:10020000FF920F931F93CF93DF931F92CDB7DEB76B
:100210008C01E12CF12C15C0C701880F991FD80162
:10022000ED91FC91E80FF91F8081918169830E9413
:1002300094056981861302C08E2D0AC0BFEFEB1AA8
:10024000FB0AF801828190E0E816F9062CF38FEFA3
:100250000F90DF91CF911F910F91FF90EF90089534
:100260000F931F93CF93DF93EC018B01411126C0B5
:100270006A81E881F98182E0689FE00DF11D112417
:10028000118300836F5F6A8370E06F5F7F4F660F3B
:10029000771F888199810E945619998388830097D6
:1002A00031F462E171E087ED92E00E944B0A81E057
:1002B00028813981232BB1F080E014C0CB010E944A
:1002C0009405682FCE010E94FF008A81882381F265
:1002D000E881F98192E0899FE00DF11D11241183DD
:1002E000008381E0DF91CF911F910F910895DC0190
:1002F000ED91FC91B2E06B9FE00DF11D1124808126
:1003000091810895FC0182810895CF92DF92EF924E
:10031000FF920F931F93CF93DF9300D0CDB7DEB73B
:100320006C0179010D964A8369830E94C40981E0BA
:10033000D6018C93698111966C9311974A8114961A
:100340004C930E94461960E27EE40E943B17F6013E
:100350009683858312861186F382E28282E0838708
:10036000D8010D900020E9F7CD010197801B910B7A
:10037000F601848799270E94BE17D60117968C93A1
:10038000179718969C93B8010F900F90DF91CF911B
:100390001F910F91FF90EF90DF90CF900C94271A50
:1003A0000F931F93CF93DF93EC0109851A850115F5
:1003B000110531F0C8010E949B00C8010E94870905
:1003C0008A819B81009711F00E9459188F8198852E
:1003D000009731F0DF91CF911F910F910C94591834
:1003E000DF91CF911F910F9108950F931F93CF939A
:1003F000DF9300D000D0CDB7DEB785E090E02C834E
:100400004A835B8369830E9485098C010E948B0566
:100410002C814A815B816981C8010E941505C80150
:100420000F900F900F900F90DF91CF911F910F9130
:1004300008958F929F92AF92BF92CF92DF92EF92E8
:10044000FF920F931F93CF93DF931F92CDB7DEB729
:100450004C018B01B42E0D960E94C409D8012C9139
:10046000332727FD309586E0359527958A95E1F766
:1004700023703327F40120832C91332727FD3095F7
:1004800094E0359527959A95E1F7237033272183DA
:100490008C918F70838711969C91119794831296FB
:1004A0002C911297332727FD3095322F2227139650
:1004B0009C91290F311D36832583882359F190E0C3
:1004C0000E94BE17D40113969C938E9312970097A7
:1004D00031F466E271E087ED92E00E944B0A60E041
:1004E00070E00EC0D4011296ED91FC911397E60FC7
:1004F000F71FD801A20FB11D8C9180836F5F7F4FD2
:10050000262F2C5FD4011B96EC91F0E06E177F072D
:100510004CF304C0F4011382128224E083E090E0E3
:1005200029830E9485097C010E948E00D4011A96BD
:10053000FC92EE921997A12C29812B15D0F5C22E91
:10054000D12CF801EC0DFD1D80818F3FB9F436C030
:10055000482F50E0F801E40FF51FE20FF31F9081E0
:10056000D4011796ED91FC911897E40FF51F908335
:100570008F5FF4019485891758F331C0A8016A2D63
:10058000C4010E94F5017C0141E0BC01D40119962F
:100590008D919C911A970E9430016A2DC7010E948B
:1005A0009B05282F2C0DC70129830E949405A82E96
:1005B000C3CFF40114861086178211C0F22EF39473
:1005C0008B2D8F19D4011C968C9390E00E94BE173E
:1005D000F4018783908780E02F2D30E0CACF0F9001
:1005E000DF91CF911F910F91FF90EF90DF90CF900F
:1005F000BF90AF909F908F90089582E090E00E940E
:10060000BE17FC0186EE80838BEB81838E2F0895CD
:10061000EF92FF920F931F93CF93DF9300D0CDB74C
:10062000DEB77C0189010D964A8369830E94C40963
:1006300081E0D7018C93698111966C9311974A815F
:1006400014964C930E94461960E27EE40E943B1788
:10065000F7019683858312861186C7010E94FD02E9
:10066000D70113969C938E93129782E01B968C93DE
:10067000D8010D900020E9F7CD010197801B910B67
:10068000F701848799270E94BE17D70117968C938C
:10069000179718969C93B8010F900F90DF91CF9108
:1006A0001F910F91FF90EF900C94271ACF93DF9337
:1006B000EC0188E190E00E94BE17FC01888120E4F3
:1006C000829FC00111242B852F70282B8981837074
:1006D00030E1839FC0011124282B20838C818183EA
:1006E0008E8182838D818383AA81BB818C91848357
:1006F000AA81BB8111968C9185838F819885892BE6
:10070000B9F08C858823A1F08FEF868387E00AC03B
:10071000AF81B885A90FB11D9C91DF01A80FB11D54
:100720009C938F5F982F97502C85921788F301C068
:1007300086E0DF01A80FB11D1C92CF01DF91CF91A0
:100740000895AF92BF92CF92DF92EF92FF920F93F4
:100750001F93CF93DF9300D000D000D0CDB7DEB78A
:100760007B018A0169010E9456035C01D701ED916A
:10077000FC910088F189E02D2EE732E03A8329834D
:10078000D80112960D911D912D913C9115970B83D7
:100790001C832D833E83A601BE016F5F7F4FC7017F
:1007A0000995D5010D900020E9F7AD01415051099F
:1007B0004A195B09D701ED91FC910280F381E02D8C
:1007C000B501C7010995D701ED91FC910488F58920
:1007D000E02DC7010995C5010E94591826960FB64C
:1007E000F894DEBF0FBECDBFDF91CF911F910F9167
:1007F000FF90EF90DF90CF90BF90AF900895FC01F5
:100800009481915081E09F3108F080E008950F932A
:100810001F93CF93DF93EC0163E371E087ED92E0E8
:100820000E944B0A65E471E087ED92E00E942C0A79
:100830004AE050E0688187ED92E00E94E70A6FE4A9
:1008400071E087ED92E00E942C0A4AE050E0698155
:1008500087ED92E00E94E70A63E771E087ED92E09E
:100860000E942C0A4AE050E06C8187ED92E00E94E1
:10087000E70A6BE971E087ED92E00E942C0A6D8136
:100880007E814AE050E087ED92E00E94C80A68EA63
:1008900071E087ED92E00E942C0A8A819B81892B6E
:1008A000C1F460EB71E087ED92E00E942C0A89852B
:1008B0009A85009799F44AC0EA81FB81E10FF11D06
:1008C00040E150E0608187ED92E00E94E00A1F5F06
:1008D00001C010E08B85181778F3E3CF0E948201E6
:1008E00081112AC033C06BEB71E087ED92E00E946A
:1008F0002C0A602F89859A850E9477010E949405B1
:100900004AE050E0682F87ED92E00E94E70A66EC2B
:1009100071E087ED92E00E942C0A602F89859A850C
:100920000E9477010E949705BC0187ED92E00E942A
:100930004B0A0F5F1F4F02C000E010E089859A85C7
:100940000E94820190E0081719076CF26FEC71E0C9
:1009500087ED92E00E942C0A8F819885892B11F5F2
:100960006AED71E087ED92E00E942C0A4AE050E0C7
:100970006C8587ED92E00E94E70A68EE71E087EDF2
:1009800092E0DF91CF911F910F910C944B0AEF8170
:10099000F885E10FF11D608187ED92E00E942E0A3B
:1009A0001F5F01C010E08C85181788F3D9CFFC01B8
:1009B00084810895FC0181810895FC0181859285DF
:1009C0000895FC018281938108950F931F93FB0189
:1009D0000281138124813581FC010787108B218BD3
:1009E000328B548B438B1F910F9108952EE732E089
:1009F000FC0131832083FB0147855089618972891D
:100A0000FC0142835383648375830895FC018389C9
:100A1000948908950F9300E020E040E060E084EACC
:100A200092E00E94CE090F910895CF92DF92FF923B
:100A30000F931F93CF93DF931F92CDB7DEB76C0157
:100A40008A01FA01E20FF11D8081482F552747FDE9
:100A5000509594E0559547959A95E1F74F70582F2A
:100A60005F70F22EF3944D3039F4F801EF0DF11D63
:100A70004081435FF39409C04E3039F4F801EF0D23
:100A8000F11D418183E0F82EF20E460FD6014C9302
:100A90005D3039F4F801EF0DF11D5081535FF3948F
:100AA00008C05E3031F4F801EF0DF11D5181F3946F
:100AB000F394852F90E059830E94BE17F60183833B
:100AC000948320E030E059810EC0F801E90FF11D58
:100AD0008081D6011396ED91FC911497E20FF31FDC
:100AE00080832F5F3F4F922F9F0D251770F3F601E4
:100AF000518312820F90DF91CF911F910F91FF9040
:100B0000DF90CF900895FC0183819481009711F0CC
:100B10000C9459180895FC0110821282118286E209
:100B200092E0948383830895FC0180810895FC0101
:100B3000838194810895FC01208130E0261B3109D6
:100B400037FD13C041815281CA0101962D30310514
:100B50000CF001964D30510530F04D30514010F4FD
:100B6000019601C002969C0102C020E030E0C9015C
:100B70000895AF92BF92CF92DF92EF92FF920F93C0
:100B80001F93CF93DF93CDB7DEB728970FB6F894B6
:100B9000DEBF0FBECDBF7C0187ED92E00E94E9076A
:100BA0006BE072E087ED92E00E944B0A64E670E031
:100BB00080E090E00E94EC0BC7010E940704C7018F
:100BC0000E94DD046BE00E94CF000E949705C701E0
:100BD0000E94FF03882309F441C0C7010E94D70483
:100BE0008150843030F4E82FF0E0EA59FD4F408125
:100BF00001C046E8C70148870E94DA04682FC70190
:100C00006F830E94E1045C0185E190E00E94850908
:100C10006C0107E212E0950148856F810E94850111
:100C2000C6010E940704C7010E9406058C01B70196
:100C3000CE0101960E94F6049801AE014F5F5F4F0E
:100C40006AEA72E0C6010E94A103C114D10431F026
:100C5000C6010E94D001C6010E94870928960FB6DE
:100C6000F894DEBF0FBECDBFDF91CF911F910F91E2
:100C7000FF90EF90DF90CF90BF90AF900895EF92EC
:100C8000FF920F931F93CF93DF93CDB7DEB72C97CF
:100C90000FB6F894DEBF0FBECDBF8EE7E82E82E020
:100CA000F82EF886EF828091CD029091CE02A0912D
:100CB000CF02B091D00289879A87AB87BC87AE01FB
:100CC000495F5F4F6CE071E08DE893E00E947D0D1D
:100CD00060910A0170910B018AEA92E00E94090F6B
:100CE00040E855E260E070E087ED92E00E94A808DD
:100CF00085E190E00E9485098C012FE232E043E01B
:100D000061E00E940803C8010E940704FA82E98298
:100D10004091C7025091C8026091C9027091CA0205
:100D20004B835C836D837E8320EA3FE0AE014F5F9F
:100D30005F4F6AEA72E0C8010E94A1030115110524
:100D400031F0C8010E94D001C8010E9487092C9689
:100D50000FB6F894DEBF0FBECDBFDF91CF911F91CC
:100D60000F91FF90EF9008958F929F92AF92BF9254
:100D7000CF92DF92EF92FF920F931F93CF93DF9367
:100D8000CDB7DEB72C970FB6F894DEBF0FBECDBF40
:100D90008AEA92E00E94BA0E7C01009709F491C0A1
:100DA0004C010E94BE175C0164E372E087ED92E0A3
:100DB0000E942C0A4AE050E0B70187ED92E00E94C1
:100DC0004C0B6DE472E087ED92E00E942C0A0091DA
:100DD000BB021091BC022091BD023091BE02098776
:100DE0001A872B873C876E0189E0C80ED11C00E072
:100DF00010E0F60161916F014AE050E087ED92E06A
:100E00000E94E00A0330110531F063E572E087EDDE
:100E100092E00E942C0A0F5F1F4F0430110549F722
:100E200065E572E087ED92E00E942C0A6091BF02B6
:100E30007091C0024AE050E087ED92E00E94C80A3B
:100E4000E091AA02F091AB02008CF18DE02DA4019B
:100E5000B5018AEA92E0099585E190E00E94850952
:100E60006C014E2DB5010E9419024091BF025091B4
:100E7000C0028EE792E09A8389830091BB021091B1
:100E8000BC022091BD023091BE020B831C832D83D6
:100E90003E83BE016F5F7F4FC6010E94E504C6011D
:100EA0000E94B905C114D10431F0C6010E94D001DD
:100EB000C6010E9487096EE572E087ED92E00E940C
:100EC0004B0A6AE070E080E090E00E94EC0B2C9608
:100ED0000FB6F894DEBF0FBECDBFDF91CF911F914B
:100EE0000F91FF90EF90DF90CF90BF90AF909F90C9
:100EF0008F9008950F9300E020E040E060E081EDE6
:100F000092E00E94CE0902E021E048EA60EC8BEC1E
:100F100092E00E94CE0901E021E048EA60EC85EC15
:100F200092E00E94CE098AEA92E00F910C94430F5E
:100F3000FC0184859585FC01E05CFF4F20813181B7
:100F4000FC01EE5BFF4F80819181281B390B2F73D1
:100F50003327C9010895FC0184859585FC01E05C77
:100F6000FF4F40815181FC01EE5BFF4F20813181B9
:100F70004217530741F00190F081E02DE80FF91F6F
:100F8000208130E002C02FEF3FEFC9010895FC013E
:100F900084859585FC01E05CFF4F40815181FC0117
:100FA000EE5BFF4F208131814217530771F0A08122
:100FB000B181A80FB91F2C918081918101968F7307
:100FC00099279183808330E002C02FEF3FEFC90162
:100FD0000895FC0186859785FC01E05CFF4FDC01EC
:100FE000AE5BBF4F408151812D913C9111974217CB
:100FF0005307C1F70895CF93DF93FC01268537850A
:10100000D901A05CBF4F8D919C91119701968F7370
:101010009927E901CE5BDF4F4881598184179507F5
:10102000D9F30D90BC91A02DA20FB31F6C93A68590
:10103000B785A05CBF4F11969C938E93A689B78904
:101040002C9181E090E0058C02C0880F991F0A94D2
:10105000E2F7282B2C9381E090E0DF91CF91089567
:1010600008951F920F920FB60F9211242F933F9362
:101070004F938F939F93EF93FF934091C60080917E
:101080007A0390917B0301968F73992720917C03BB
:1010900030917D038217930759F0E0917A03F09124
:1010A0007B03E65CFC4F408390937B0380937A0341
:1010B000FF91EF919F918F914F913F912F910F90C1
:1010C0000FBE0F901F90189587ED92E00E94980731
:1010D000892B11F00C94300808951F920F920FB6CF
:1010E0000F9211242F933F938F939F93EF93FF932E
:1010F0002091360330913703809138039091390362
:101100002817390731F48091C1008F7D8093C10089
:1011100014C0E0913803F0913903EA50FD4F20816B
:10112000809138039091390301968F73992790939A
:101130003903809338032093C600FF91EF919F916C
:101140008F913F912F910F900FBE0F901F90189588
:10115000CF92DF92EF92FF92CF93DF93EC016A017F
:101160007B01411581EE580761057105F9F0EC89A5
:10117000FD8981E090E00E8C02C0880F991F0A94CF
:10118000E2F7808360E079E08DE390E0A7019601CB
:101190000E944F1721503109410951095695479531
:1011A00037952795211580E1380798F0EC89FD895E
:1011B000108260E874E88EE190E0A70196010E9439
:1011C0004F172150310941095109569547953795D7
:1011D0002795E889F9893083EA89FB892083EE899C
:1011E000FF89408181E090E09C010A8C02C0220FBF
:1011F000331F0A94E2F7422B4083EE89FF89408136
:101200009C010B8C02C0220F331F0A94E2F7422B81
:101210004083EE89FF8940819C010C8C02C0220F23
:10122000331F0A94E2F7422B4083EE89FF89208125
:101230000D8C02C0880F991F0A94E2F780958223D3
:101240008083DF91CF91FF90EF90DF90CF90089552
:101250001092DA021092D90288EE93E0A0E0B0E09A
:101260008093DB029093DC02A093DD02B093DE0258
:101270008EE692E09093D8028093D7028AE393E0BF
:101280009093E4028093E30286EF92E09093E6026B
:101290008093E50285EC90E09093E8028093E7026A
:1012A00084EC90E09093EA028093E90280EC90E075
:1012B0009093EC028093EB0281EC90E09093EE022D
:1012C0008093ED0286EC90E09093F0028093EF0221
:1012D00084E08093F10283E08093F20287E08093C0
:1012E000F30285E08093F40281E08093F502089593
:1012F0000E94120C0E943F06C4E6D8E00E94B40689
:101300002097E1F30E946408F9CF0C94BE170C9467
:101310005918AF92BF92CF92DF92EF92FF920F9344
:101320001F93CF93DF936C017B01C0E0D0E000E01E
:1013300010E0F601EC0FFD1F4AE050E06281C701AA
:101340000E94E00A5C016EE2C7010E942E0A8A0D2B
:101350009B1D080F191F2196C330D10551F74AE094
:1013600050E0F6016581C7010E94E00A080F191FCD
:10137000C801DF91CF911F910F91FF90EF90DF9007
:10138000CF90BF90AF9008952EE732E0FC013183FB
:101390002083128213821482158208950F93FC0118
:1013A0008EE792E091838083628343832483058365
:1013B0000F910895FC01DB014D915D916D917C9140
:1013C000428353836483758308958EE792E09093FC
:1013D0007F0380937E03109280031092810310920A
:1013E0008203109283030895CF92DF92EF92FF92CF
:1013F0000F931F93CF93DF936C01EB017A01E60EFD
:10140000F71E00E010E00BC06991D601ED91FC9150
:101410000190F081E02DC6010995080F191FCE1526
:10142000DF0591F7C801DF91CF911F910F91FF90D8
:10143000EF90DF90CF900895DB010D900020E9F749
:10144000AD0141505109461B570BDC01ED91FC9158
:101450000280F381E02D09940C941C0ADC01ED91CB
:10146000FC910190F081E02D09940F931F93CF938D
:10147000DF93EC016DE00E942E0A8C016AE0CE0140
:101480000E942E0A9C01200F311FC901DF91CF91CC
:101490001F910F9108950F931F93CF93DF93EC014A
:1014A0000E941C0A8C01CE010E94350A9801280F67
:1014B000391FC901DF91CF911F910F9108955F925C
:1014C0006F927F928F929F92AF92BF92CF92DF9254
:1014D000EF92FF920F931F93CF93DF93CDB7DEB7B9
:1014E000A1970FB6F894DEBF0FBECDBF3C016A01D5
:1014F0007B01522E19A281E0821710F08AE0582E4B
:101500008E010F5D1F4F852C912CA12CB12CC70192
:10151000B601A50194010E944F178C2D529E80198F
:101520001124015011098A3014F4805D01C0895CD6
:10153000F801808369017A01C114D104E104F10446
:1015400031F7B801C3010E941C0AA1960FB6F894A6
:10155000DEBF0FBECDBFDF91CF911F910F91FF90E6
:10156000EF90DF90CF90BF90AF909F908F907F9043
:101570006F905F9008952115310541F4DC01ED91E4
:10158000FC910190F081E02D642F09940C945F0A86
:101590000F931F93CF93DF93EC019A01AB0160E0AF
:1015A00070E00E94BB0A8C01CE010E94350A9801AE
:1015B000280F391FC901DF91CF911F910F91089515
:1015C0009A01462F50E060E070E00C94BB0A0F9344
:1015D0001F93CF93DF93EC019A01462F50E060E018
:1015E00070E00E94BB0A8C01CE010E94350A98016E
:1015F000280F391FC901DF91CF911F910F910895D5
:10160000CF92DF92EF92FF920F931F93CF93DF93CE
:10161000EC016A017B012115310579F4E881F9813A
:101620000190F081E02D642FDF91CF911F910F91F8
:10163000FF90EF90DF90CF9009942A30310519F494
:1016400077FD0EC02AE0B701A601CE01DF91CF9150
:101650001F910F91FF90EF90DF90CF900C945F0A55
:101660006DE20E942E0A8C0144275527BA014C19BD
:101670005D096E097F092AE0CE010E945F0A9C0184
:10168000200F311FC901DF91CF911F910F91FF9062
:10169000EF90DF90CF9008950F931F93CF93DF9338
:1016A000EC019A01AB01662757FD6095762F0E94E9
:1016B000000B8C01CE010E94350A9801280F391FBA
:1016C000C901DF91CF911F910F9108951F920F9241
:1016D0000FB60F9211242F933F938F939F93AF9345
:1016E000BF938091840390918503A0918603B0916C
:1016F000870330918C03232F2D5F2D3720F4019623
:10170000A11DB11D05C0232F2A570296A11DB11D91
:1017100020938C038093840390938503A093860386
:10172000B09387038091880390918903A0918A03E5
:10173000B0918B030196A11DB11D809388039093F6
:101740008903A0938A03B0938B03BF91AF919F91BC
:101750008F913F912F910F900FBE0F901F90189572
:101760000F931F938FB7F894009184031091850312
:1017700020918603309187038FBFB801C9011F9163
:101780000F9108950F931F939FB7F89400918803CA
:101790001091890320918A0330918B0386B5A89B11
:1017A00006C08F3F21F00F5F1F4F2F4F3F4F9FBF4E
:1017B000322F212F102F0027080F111D211D311D41
:1017C00042E0000F111F221F331F4A95D1F7B801C5
:1017D000C9011F910F910895CF92DF92EF92FF926E
:1017E000CF93DF936B017C010E94C20BEB010EC013
:1017F0000E94C20B6C1B7D0B683E734038F081E089
:10180000C81AD108E108F108C851DC4FC114D1044D
:10181000E104F10469F7DF91CF91FF90EF90DF9041
:10182000CF900895789484B5826084BD84B581603A
:1018300084BD85B5826085BD85B5816085BDEEE6D8
:10184000F0E0808181608083E1E8F0E010828081B7
:1018500082608083808181608083E0E8F0E0808125
:1018600081608083E1EBF0E0808184608083E0EB45
:10187000F0E0808181608083EAE7F0E0808184602D
:101880008083808182608083808181608083808189
:10189000806880831092C100089544E050E0BC014C
:1018A00081E090E00C949B1144E050E0BC0185E0A5
:1018B00090E00C949B1144E050E0BC018FE090E07C
:1018C0000C949B118F929F92AF92BF92CF92DF9216
:1018D000EF92FF920F931F93CF93DF9300D0CDB77A
:1018E000DEB74C016A01590181EB93E069837A8389
:1018F0000E945D1146E050E069817A8189E090E0C4
:101900000E949B11C60102960E945B0CC8010296C0
:101910000E944D0CC70102960E94540CF5014281B1
:10192000538164817581F401428353836483758399
:101930000F900F90DF91CF911F910F91FF90EF903B
:10194000DF90CF90BF90AF909F908F9008952F928F
:101950003F924F925F926F927F928F929F92AF923F
:10196000BF92CF92DF92EF92FF920F931F93CF938C
:10197000DF93CDB7DEB76E970FB6F894DEBF0FBE1C
:10198000CDBF5C014B013A012901180100E02FEFA6
:101990004FEF6FEFCE0149960E94CE098EE792E09D
:1019A0009A838983CB8CDC8CED8CFE8CCB82DC82A1
:1019B000ED82FE8298878F83F10102811381248159
:1019C000358109871A872B873C879E878D87F2018F
:1019D00002811381248135810F87188B298B3A8BE3
:1019E0009C8B8B8BF30142815381648175814D8B7C
:1019F0005E8B6F8B788FEE24E394F12CEC0EFD1E42
:101A00008E01095F1F4F9E01235F3F4FAE014D5E68
:101A10005F4FB401C5010E94620C6E960FB6F89438
:101A2000DEBF0FBECDBFDF91CF911F910F91FF9011
:101A3000EF90DF90CF90BF90AF909F908F907F906E
:101A40006F905F904F903F902F900895CF92DF92CC
:101A5000EF92FF920F931F93CF93DF93CDB7DEB733
:101A600068970FB6F894DEBF0FBECDBFDB017901DA
:101A7000FA0142815381648175814D8B5E8B6F8B3E
:101A8000788F2EE7C22E22E0D22EDA82C98221E0A0
:101A9000288F0D891E892F89388D0B831C832D83F8
:101AA0003E83D886CF82F70102811381248135815C
:101AB00009871A872B873C87DE86CD864F87588B10
:101AC000698B7A8B8E010F5F1F4F9E01295F3F4FFD
:101AD000AE01435F5F4FBD010E94A70C68960FB631
:101AE000F894DEBF0FBECDBFDF91CF911F910F9154
:101AF000FF90EF90DF90CF9008950F931F93CF93B7
:101B0000DF93CDB7DEB762970FB6F894DEBF0FBE96
:101B1000CDBFDB01FA0142815381648175814F871A
:101B2000588B698B7A8BEEE7F2E0FA83E98321E048
:101B30002A8B0F85188929893A890B831C832D8369
:101B40003E83F887EF8349875A876B877C879E019E
:101B50002F5F3F4FAE01495F5F4FBD010E94260DD1
:101B600062960FB6F894DEBF0FBECDBFDF91CF9166
:101B70001F910F9108952EE732E0FC0131832083FD
:101B8000FB014281538164817581FC01428353834F
:101B90006483758308950F9300E020E040E060E0E7
:101BA0008DE993E00E94CE098DE893E00F910C94AB
:101BB000C409DC01ED91FC91008CF18DE02D0994BC
:101BC0002EE732E0FC0131832083FB0141895289F9
:101BD00063897489FC014283538364837583089508
:101BE000FC01858996890895FC01818D928D089567
:101BF000CF93DF931F92CDB7DEB76983DC01ED9100
:101C0000FC910280F381E02D41E050E0BE016F5F66
:101C10007F4F09950F90DF91CF910895CF93DF9378
:101C2000EC0107C0E881F9810680F781E02DCE0143
:101C30000995898D9A8D892BA9F7DF91CF91089508
:101C4000CF93DF931F92CDB7DEB7FC01218D328D8C
:101C5000232B49F0BE016F5F7F4F84850E94A31044
:101C6000298130E002C02FEF3FEFC9010F90DF91D3
:101C7000CF910895CF93DF93EC01898D9A8D0097D2
:101C800019F42FEF3FEF11C04817590708F0AC01C6
:101C90008C850E9464109C011816190694F7898D92
:101CA0009A8D821B930B9A8F898FC901DF91CF91F7
:101CB00008950F931F93CF93DF931F92CDB7DEB795
:101CC0008C01FC01818D928D892B59F041E050E00F
:101CD000BE016F5F7F4F84850E946410181619063D
:101CE0001CF02FEF3FEF08C0F801818D928D019716
:101CF000928F818F298130E0C9010F90DF91CF91C0
:101D00001F910F910895CF93DF93EC019A018F8972
:101D1000988DAB01BC018C850E94B1109C018F890C
:101D2000988D820F931F988F8F8BC901DF91CF9170
:101D30000895FC0184850C940D11FC01108E178A06
:101D40006E5F7F4F84850C94E710CF93DF93EC0197
:101D50008C85843061F00E941510EC85F0E0EE0F68
:101D6000FF1FEB56FC4F1182108284E08C87DF91BD
:101D7000CF9108950F931F93CF93DF93CDB7DEB725
:101D800028970FB6F894DEBF0FBECDBF8C01DC01E3
:101D9000ED91FC910284F385E02D0995F8016485AD
:101DA00081EB93E00E946012892B29F148E050E01A
:101DB000BE016F5F7F4FD8011C968C910E9464100A
:101DC0009C0118161906CCF4BE016F5F7F4FC80145
:101DD0000F960E94DA099D8180E02E81820F911D6D
:101DE000F801968B858B3F8120E08885280F311D77
:101DF000328F218F02C020E030E0C90128960FB653
:101E0000F894DEBF0FBECDBFDF91CF911F910F9130
:101E10000895CF92DF92EF92FF920F931F93CF938B
:101E2000DF93EC016B018C85843019F593E0E92E8A
:101E300094E0F92E00E010E0C7010E94CA11811160
:101E400002C00C8708C08831E1F30F5F1F4FF39485
:101E50000430110589F78C85843059F0DE86CD86F3
:101E60001A8E198E20E0A60162E00E94231081E004
:101E700001C080E0DF91CF911F910F91FF90EF9013
:101E8000DF90CF900895FC011382128248EE53E058
:101E900060E070E0448355836683778384E892E052
:101EA0009183808384E08487CF010F960C94C409CA
:101EB000CF92DF92EF92FF920F931F93CF93DF9316
:101EC000CDB7DEB7E5970FB6F894DEBF0FBECDBF36
:101ED0007C018B016A01CE0101960E94C409CE01EA
:101EE00009960E94430FCE01C0960E94C4096DE876
:101EF00073E0CE018A960E94BB0DBE01665D7F4FE6
:101F0000CE0101960E949713AE01405D5F4FB8016C
:101F1000CE0101960E94FD159C0181309105C9F406
:101F2000D701ED91FC910088F189E02D8EE792E0D8
:101F30009DA38CA30AA91BA92CA93DA90EA31FA38D
:101F400028A739A7A601BE016C5D7F4FC70109957F
:101F50009C01C901E5960FB6F894DEBF0FBECDBF58
:101F6000DF91CF911F910F91FF90EF90DF90CF9075
:101F700008950F9300E020E040E060E083EA93E002
:101F80000E94CE090F9108950F9300E020E040E0F9
:101F900060E089EA93E00E94CE090F910895382FFE
:101FA00020E044E050E0C901845F9B4F0C949B11FA
:101FB00090E00496982F8827860F971F0C94CA11DB
:101FC00062E070E00C94D80F9B0190E00496982F8B
:101FD0008827642F820F931F0C943B11462F62E0D9
:101FE00070E00C94E40FCF93DF93C82FD62F472FC8
:101FF00060E170E00E94E40F4D2F61E170E08C2FF2
:10200000DF91CF910C94E40FCF93DF93C82FD62F9D
:10201000472F64E070E00E94E40F4D2F65E070E010
:102020008C2FDF91CF910C94E40FCF93C82F40E118
:1020300050E0682F81EB93E00E9468136FEF8C2FC4
:10204000CF910C94EE0FEF92FF921F93CF93DF93FB
:1020500000D0CDB7DEB7182F7A01862F815085309A
:1020600050F5812F2A8369830E9415102A81698186
:10207000422F462B60E070E0812F0E94E40FE114B4
:10208000F10411F0B7010BC02091AF033091B00300
:10209000B9016F5F7F4F7093B0036093AF03812FDF
:1020A0000E94041041E050E0612F81EB93E00E9418
:1020B000681381E001C080E00F900F90DF91CF9115
:1020C0001F91FF90EF900895DF92EF92FF920F9390
:1020D0001F93CF93DF93D82E7B018A01682F81EB6A
:1020E00093E00E946012EC01009771F463E070E0ED
:1020F0008D2D0E94D80F8431E9F08823D9F08C31DE
:10210000C9F0CFEFDFEF16C0081719070CF4E8018C
:102110001C161D067CF400E09E01A7016D2D81EBCD
:1021200093E00E94181340E450E06D2D81EB93E0A2
:102130000E946813CE01DF91CF911F910F91FF9004
:10214000EF90DF9008950F93AB0101E021E030E0C4
:10215000682F81EB93E00E94181381E090E00F91CB
:102160000895AF92BF92CF92DF92EF92FF920F93BA
:102170001F93CF93DF93B82E7B016A01E901682F8B
:1021800081EB93E00E9490128C179D0740F46B2D19
:1021900081EB93E00E949012A82EC92F02C0AC2EB2
:1021A000CD2F0A2D1C2F9601A7016B2D81EB93E0FB
:1021B0000E94EA118A2D9C2FDF91CF911F910F91E0
:1021C000FF90EF90DF90CF90BF90AF9008951F9356
:1021D000CF93DF93182FFB01EA018081811109C0A1
:1021E0008181811106C08281811103C0838188238E
:1021F00069F0209759F0BF01812F0E94CF0FBE01D7
:10220000812F0E94F30F21E030E002C020E030E097
:10221000C901DF91CF911F910895CF93C82F40E25C
:1022200050E0682F81EB93E00E9468130CC08C2F64
:102230000E94E00F83FF07C068E18C2F0E94EE0F21
:1022400020E030E00BC08C2F0E94E00F84FFEFCF26
:1022500060E18C2F0E94EE0F21E030E0C901CF91A8
:1022600008958EBD0DB407FEFDCF8EB508952A9852
:1022700008952A9A08951F93CF93DF9300D0CDB786
:10228000DEB7182F6A8399830E94371180EF0E946E
:1022900031119981892F0E943111812F0E943111B2
:1022A0006A81862F0E9431110E94391181E00F90BE
:1022B0000F90DF91CF911F910895CF93DF93EC01A1
:1022C0006CE271E080E090E00E94EC0B0E947813D9
:1022D000229A60E880E090E00E943B1165E58BE186
:1022E00090E00E943B1165E58AE190E00E943B117D
:1022F00080E090E49983888380E090E699878887DE
:1023000080E098E49B838A8380E098E69B878A87B5
:1023100080E090E59D838C8380E090E79D878C87AB
:1023200080E098E59F838E8380E098E79F878E8783
:10233000DF91CF910895CF92DF92EF92FF920F93AA
:102340001F93CF93DF93EC017A018B016A01C80ED2
:10235000D91E13C00E94371180EF0E9431118D2FBA
:102360000E9431118C2F0E9431112196F801819128
:102370008F010E9431110E943911CC15DD0551F7F2
:10238000C701DF91CF911F910F91FF90EF90DF90E8
:10239000CF9008951F93CF93DF931F92CDB7DEB7F1
:1023A000182F99830E9437118FE00E943111998173
:1023B000892F0E943111812F0E94311180E00E94EB
:1023C000311189830E94391189810F90DF91CF915A
:1023D0001F9108958F929F92AF92BF92CF92DF92FA
:1023E000EF92FF920F931F93CF93DF937C01962E72
:1023F000EA01590164E270E0892D0E94D80F882E0D
:1024000065E270E0892D0E94D80FD82CC12CC82A13
:10241000CC0EDD1E9601377062E0969EE00CF11C3A
:102420001124F70180819181820F931FA901400F30
:10243000511F4130584090F0C0E0D8E0C21BD30B90
:10244000AE01B5010E949B11A8014C1B5D0BB501AB
:102450006C0F7D1FF7018081918102C0A801B50139
:102460000E949B110C0D1D1D412F64E270E0892D0F
:102470000E94E40F402F65E270E0892DDF91CF913B
:102480001F910F91FF90EF90DF90CF90BF90AF9092
:102490009F908F900C94E40FCF93DF93C82F66E248
:1024A00070E00E94D80FD82F67E270E08C2F0E9456
:1024B000D80F3D2F20E0282BC901DF91CF9108953F
:1024C000FF920F931F93CF93DF93F62EC0E0D0E0DF
:1024D0008F2D0E944C128C01009721F08F2D0E94AD
:1024E0004C12EC01C017D10799F7CE01DF91CF91C3
:1024F0001F910F91FF900895CF93DF93C82F60E253
:1025000070E00E94D80FD82F61E270E08C2F0E94FB
:10251000D80F3D2F20E0282BC901DF91CF910895DE
:10252000FF920F931F93CF93DF93F62EC0E0D0E07E
:102530008F2D0E947C128C01009721F08F2D0E941C
:102540007C12EC01C017D10799F7CE01DF91CF9132
:102550001F910F91FF900895CF92DF92EF92FF921B
:102560000F931F93CF93DF93EC017A018B016A01E4
:10257000C80ED91E14C00E9437118FE00E9431117D
:102580008D2F0E9431118C2F0E943111219680E0F5
:102590000E943111F80181938F010E943911CC15ED
:1025A000DD0549F7C701DF91CF911F910F91FF9092
:1025B000EF90DF90CF900895CF92DF92EF92FF924D
:1025C0000F931F93CF93DF93690157707C0122E033
:1025D000629FE00CF11C112488E0E80EF11CF70169
:1025E00080819181840F951F9801240F351F213020
:1025F000384090F0C0E0D8E0C41BD50BAE01B60166
:102600000E94AC12A8014C1B5D0BB6016C0F7D1F24
:10261000F7018081918102C0A801B601DF91CF91BD
:102620001F910F91FF90EF90DF90CF900C94AC1220
:102630008F929F92AF92BF92CF92DF92EF92FF92D2
:102640000F931F93CF93DF936C01962E5A01E901EC
:10265000802E68E270E0892D0E94D80FF82E69E282
:1026600070E0892D0E94D80FFF2DE0E07F01E82A5D
:102670008E019501A701692DC6010E94DC1281100F
:102680001AC0CE0DDF1D4D2F68E270E0892D0E942B
:10269000E40F4C2F69E270E0892DDF91CF911F91FB
:1026A0000F91FF90EF90DF90CF90BF90AF909F90F1
:1026B0008F900C94E40FDF91CF911F910F91FF90B9
:1026C000EF90DF90CF90BF90AF909F908F90089544
:1026D000CF93C62F61E070E08C2F0E94E40F61E081
:1026E00070E08C2F0E94D80F8111F9CFCF910895FF
:1026F00061E08DE00E94CC1661E08BE00E94CC1678
:1027000061E08AE00E94CC1660E08DE00E94041730
:1027100060E08BE00E94041761E08AE00E940417E9
:102720008CB580618CBD8CB580648CBD0895FB0137
:102730004281538164817581FC01428353836483A8
:102740007583178216820895CF93FB01DB018D916B
:102750008111FDCF80E090E020E030E0CAE01BC0B6
:102760008F3F910509F064F5DA01A20FB31F1296AD
:102770008C932F5F3F4F80E090E00DC0DC01CA9F3B
:10278000C001CB9F900D1124772767FD7095605392
:102790007109860F971F6191662321F0243031055E
:1027A00094F00EC08F3F910509F054F424303105A8
:1027B0003CF4FA01E20FF31F828321E030E006C00F
:1027C00020E030E003C06E32C9F6CACFC901CF9114
:1027D0000895AF92BF92CF92DF92EF92FF920F9344
:1027E0001F93CF93DF9300D01F92CDB7DEB77C014C
:1027F0005B010E94B00BF701778366838701085F56
:102800001F4FB7016A5F7F4F42E050E0C8010E944E
:10281000830E81E090E09A83898342E050E0BE011C
:102820006F5F7F4FC8010E94830E80E091E09A8322
:10283000898342E050E0BE016F5F7F4FC8010E9474
:10284000830E1A82198242E050E0BE016F5F7F4F13
:10285000C8010E94830E42E050E0BE016F5F7F4FCF
:10286000C8010E94830E42E050E0BE016F5F7F4FBF
:10287000C8010E94830E7501650121C0F6017F0128
:102880008191811107C05701AC18BD081A141B04AF
:1028900024F011C08E3299F7F6CFAB8241E050E0C0
:1028A000BE016D5F7F4FC8010E94830EA501B60176
:1028B000C8010E94830E6701FFEFCF1ADF0AF701FC
:1028C00080818111DBCF1B8241E050E0BE016D5F52
:1028D0007F4FC8010E94830EE12CFF24F394FA82FB
:1028E000E98242E050E0BE016F5F7F4FC8010E9465
:1028F000830EFA82E98242E050E0BE016F5F7F4FB3
:10290000C8010E94830E81E090E00F900F900F901D
:10291000DF91CF911F910F91FF90EF90DF90CF90BB
:10292000BF90AF9008952F923F924F925F926F9217
:102930007F928F929F92AF92BF92CF92DF92EF924F
:10294000FF920F931F93CF93DF93CDB7DEB76397BB
:102950000FB6F894DEBF0FBECDBF2C014B011A019C
:102960000E94B00B6B017C01320128E0620E711CE9
:10297000A12CB12C12C00E94B00B6C197D098E09DC
:102980009F0986169706A806B90608F40DC162E3EA
:1029900070E080E090E00E94EC0BC3010E94BA0E50
:1029A0001816190644F7F201C280D380E480F5803E
:1029B000018D128D238D348DC016D106E206F306EB
:1029C00009F0F5C0858D968DC59709F0F0C0F5C06A
:1029D0004CE050E0BE016F5F7F4FC3010E943A0E92
:1029E0008B819C819827892798279A8B898BF20164
:1029F0004681578129813A814217530711F497FD87
:102A000006C0C3010E940E0E2CEF3FEFDCC08F709A
:102A10009270892B31F0C3010E940E0E2BEF3FEF15
:102A2000D2C0CF80D884DC24CD24DC24C114D104CE
:102A300071F5C3010E940E0E2AEF3FEFC4C041E0C2
:102A400050E0BE01635F7F4FC3010E943A0E8D8547
:102A5000811107C08D858111F2CF0AC0C3010E9488
:102A6000590E8D85982F91509D878111F7CFF2CF08
:102A7000C3010E94590EC3010E94590EC3010E9456
:102A8000590EC3010E94590E0F5F1F4F02C000E094
:102A900010E08D819E8198278927982708171907AC
:102AA00070F2E12CF12C41E050E0BE016D5E7F4FF1
:102AB000C3010E943A0E8B89982F907C69F4811192
:102AC00004C00EC0C3010E94590E8B89982F9150EB
:102AD0009B8B8111F7CF04C0C3010E94590E1B8A42
:102AE0008B898111E0CF42E050E0BE01615F7F4FF2
:102AF000C3010E943A0E42E050E0BE01635F7F4F87
:102B0000C3010E943A0EC3010E94590EC3010E94E4
:102B1000590EC3010E94590EC3010E94590E42E092
:102B200050E0BE016F5E7F4FC3010E943A0E8F8559
:102B300098898115914009F58D859E858115914073
:102B4000E1F489899A898115944031F0C3010E948A
:102B50000E0E27EF3FEF37C0B1016E5F7F4F44E0AD
:102B600050E0C3010E943A0E21E030E02CC0C301C6
:102B70000E94590E0F5F1F4F02C000E010E08989CC
:102B80009A899827892798270817190780F3FFEF54
:102B9000EF1AFF0AEC14FD0409F085CFC3010E946F
:102BA0000E0E26EF3FEF0FC02FEF3FEF0CC02EEFC2
:102BB0003FEF09C02DEF3FEF06C0C3010E94F40DA7
:102BC0000C97C4F305CFC90163960FB6F894DEBF26
:102BD0000FBECDBFDF91CF911F910F91FF90EF906E
:102BE000DF90CF90BF90AF909F908F907F906F902D
:102BF0005F904F903F902F9008956F927F928F92A9
:102C00009F92AF92BF92CF92DF92EF92FF920F937B
:102C10001F93CF93DF9300D000D000D0CDB7DEB7A5
:102C20005C014B013A010E94A413892B09F051C0A9
:102C3000F501C280D380E480F5800091C303109138
:102C4000C4032091C5033091C603C016D106E20625
:102C5000F30609F441C00E94B00B7501F8E0EF0ED5
:102C6000F11C6F707727882799277C5FC7010E9426
:102C7000090F8130A1F58EE792E09A838983F501EF
:102C800002811381248135810B831C832D833E8334
:102C900045E350E0BE016F5F7F4FC7010E949D0E6C
:102CA000892B19F400E010E010C0B401C5010E94A6
:102CB000E913892BB9F3C7010E94990E892B91F46E
:102CC000F1CF0F3FFFEF1F0781F0C7010E94A50E54
:102CD00018C001E010E015C00EEF1FEF12C000E0B9
:102CE00010E00FC093E0C92ED12CA30168E873E176
:102CF000C5010E9493148C0121E0C21AD10829F366
:102D0000E0CFC80126960FB6F894DEBF0FBECDBF48
:102D1000DF91CF911F910F91FF90EF90DF90CF90B7
:102D2000BF90AF909F908F907F906F9008950F937A
:102D300000E020E040E060E081EC93E00E94CE09FA
:102D40000F910895833069F028F48130A1F082302A
:102D500011F514C08630B1F08730C1F08430D9F459
:102D600004C0809180008F7703C0809180008F7DA8
:102D700080938000089584B58F7702C084B58F7DDD
:102D800084BD08958091B0008F7703C08091B0001A
:102D90008F7D8093B0000895CF93DF9390E0FC0186
:102DA000E458FF4F4491FC01E057FF4F8491882382
:102DB00041F190E0880F991FFC01E255FF4F2591EA
:102DC0003491D9018C559F4FFC0185919491C82F66
:102DD000D92F9FB7F8948C91611106C04095842338
:102DE0008C938881842308C0623041F4242F20957D
:102DF00082238C938881842B888302C0842B8C93BC
:102E00009FBFDF91CF9108950F931F93CF93DF93CF
:102E10001F92CDB7DEB7282F30E0F901E859FF4FF8
:102E20008491F901E458FF4F1491F901E057FF4FE5
:102E300004910023D1F0882321F069830E94A21617
:102E40006981E02FF0E0EE0FFF1FEC55FF4F8591F9
:102E50009491DC019FB7F8948C91611103C0109597
:102E6000812301C0812B8C939FBF0F90DF91CF9165
:102E70001F910F91089597FB072E16F4009407D029
:102E800077FD09D00E94981707FC05D03EF4909575
:102E900081959F4F0895709561957F4F0895A1E2A8
:102EA0001A2EAA1BBB1BFD010DC0AA1FBB1FEE1FC4
:102EB000FF1FA217B307E407F50720F0A21BB30B0F
:102EC000E40BF50B661F771F881F991F1A9469F78B
:102ED00060957095809590959B01AC01BD01CF01E7
:102EE0000895052E97FB16F4009407D057FD0DD0DA
:102EF0000E944F1707FC09D07EF49095809570953D
:102F000061957F4F8F4F9F4F089550954095309515
:102F100021953F4F4F4F5F4F08950E94B217A59FD5
:102F2000900DB49F900DA49F800D911D11240895C4
:102F3000AA1BBB1B51E107C0AA1FBB1FA617B707DF
:102F400010F0A61BB70B881F991F5A95A9F78095FB
:102F50009095BC01CD010895EE0FFF1F0590F491EF
:102F6000E02D0994A29FB001B39FC001A39F01D09F
:102F7000B29F700D811D1124911D08950F931F9311
:102F8000CF93DF938230910510F482E090E0E091DE
:102F9000C903F091CA0320E030E0C0E0D0E023C0D4
:102FA0004081518148175907A8F04817590761F423
:102FB00082819381209719F09B838A832EC09093FE
:102FC000CA038093C90329C02115310529F042178E
:102FD000530710F0A90102C0BE01DF010281138175
:102FE000EF019A01F8013097D9F62115310509F161
:102FF000281B390B2430310590F412968D919C9149
:1030000013976115710521F0FB019383828304C03E
:103010009093CA038093C903FD01329644C0FD0119
:10302000E20FF31F81939193225031092D933C932A
:103030003AC02091C7033091C803232B41F420915B
:103040000201309103013093C8032093C7032091FC
:103050000001309101012115310541F42DB73EB732
:103060004091040150910501241B350BE091C703E9
:10307000F091C803E217F307A0F42E1B3F0B2817AB
:10308000390778F0AC014E5F5F4F2417350748F0E1
:103090004E0F5F1F5093C8034093C70381939193D2
:1030A00002C0E0E0F0E0CF01DF91CF911F910F91DE
:1030B0000895EF92FF920F931F93CF93DF930097A2
:1030C00009F48EC0DC01129713961C921E9212977F
:1030D000E090C903F090CA03E114F10489F42D9142
:1030E0003C911197280F391F8091C7039091C80315
:1030F0008217930789F5B093C803A093C70370C0E4
:10310000E70120E030E001C0EA01CA17DB0738F42C
:103110004A815B819E0141155105B1F722C0AC0186
:1031200042505109FA01D383C28300811181BC014D
:10313000600F711F6C177D0761F468817981600FE2
:10314000711F6E5F7F4F718360836A817B817383A0
:1031500062832115310529F4B093CA03A093C903F2
:103160003FC0F901B383A283E90149915991C40F8A
:10317000D51FAC17BD0771F4DC019E918E91840FB1
:10318000951F02969183808312968D919C9113973F
:1031900093838283A0E0B0E002C0D7017C01F701F5
:1031A000828193810097C9F7C701029620813181FE
:1031B000820F931F2091C7033091C8032817390746
:1031C00079F4109729F41092CA031092C90304C02D
:1031D00013961C921E921297F092C803E092C703B6
:1031E000CDB7DEB7E6E00C945E1A8F929F92AF9255
:1031F000BF92CF92DF92EF92FF92CF93DF93EC01D9
:10320000688179818A819B816115710581059105AC
:1032100021F464E279ED8BE597E02DE133EF41E0B5
:1032200050E00E94711749015A019B01AC01A7EAC5
:10323000B1E40E948D176B017C01ACEEB4EFA501E7
:1032400094010E94311AC60ED71EE81EF91EF7FE21
:1032500006C081E0C81AD108E10880E8F80AC882EF
:10326000D982EA82FB82E894D7F8EE24FF24C601D3
:10327000DF91CF91FF90EF90DF90CF90BF90AF9014
:103280009F908F9008950E94F518089586E091E030
:103290000E94F5180895A0E0B0E080930601909395
:1032A0000701A0930801B09309010895A0E0B0E0E0
:1032B000ECE5F9E10C943C1AEC01009729F4CB0100
:1032C0000E94BE17EC01B4C0DC01A60FB71FFC01C1
:1032D0003297AE17BF0718F4C0E0D0E0A9C0008154
:1032E000118106171707B0F00530110508F4A0C0CA
:1032F000C80104978617970708F49AC0025011096D
:10330000061B170B0D931D9371836083CD010E94E3
:1033100059188EC06B01C01AD10A7C01E00EF11E53
:10332000E091C903F091CA0320E030E080E090E032
:1033300048C0EE15FF05D1F580809180540142E030
:10334000A40EB11CAC14BD0488F17401EC18FD0886
:10335000670122E0C20ED11C9E012250310945E0D6
:10336000C416D10478F04281538113965C934E9336
:1033700012971196FC92EE92F901718360833A2FB5
:103380002B2F09C00E5F1F4F080D191DD9010D937A
:103390001C9332812381009721F0FC013283238327
:1033A00047C03093C9032093CA0342C080819181F2
:1033B0002817390708F49C0152814381CF01E52F7A
:1033C000F42F309709F0B5CF8091C7039091C803CF
:1033D0008E159F05F1F426173707D8F48091000168
:1033E00090910101009741F48DB79EB7209104019F
:1033F00030910501821B930BA817B90708F06CCF19
:10340000B093C803A093C703FE0132977183608312
:103410000FC0CB010E94BE177C01009709F45CCF5E
:10342000A801BE010E941E1ACE010E945918E70190
:10343000CE01CDB7DEB7ECE00C94581AFB01DC01ED
:1034400002C001900D9241505040D8F70895FB0101
:10345000DC0101900D920020E1F70895B7FF0C9474
:103460008D170E948D17821B930B08952F923F9208
:103470004F925F926F927F928F929F92AF92BF9284
:10348000CF92DF92EF92FF920F931F93CF93DF9330
:10349000CDB7DEB7CA1BDB0B0FB6F894DEBF0FBE8D
:1034A000CDBF09942A88398848885F846E847D84DA
:1034B0008C849B84AA84B984C884DF80EE80FD80DC
:1034C0000C811B81AA81B981CE0FD11D0FB6F89452
:0E34D000DEBF0FBECDBFED010895F894FFCF13
:1034DE000000CB03200001000000B822DEADBEEFDD
:1034EE00FEED4D454D4F5259204F5054494F4E20F1
:1034FE004552524F52004D454D4F52592045525252
:10350E004F52000A2323232323235354415254237F
:10351E00232323230056657273696F6E3A2000547D
:10352E00797065205B3020434F4E2C2031204E4F5A
:10353E004E2C20322041434B2C2033205253545DCD
:10354E003A2000436F6465205B31204745542C20A0
:10355E003220504F53542C2033205055542C2034AD
:10356E002044454C4554455D3A20004D65737361CA
:10357E0067652049443A2000546F6B656E3A20000F
:10358E000A4F7074696F6E733A20000A094E756D9A
:10359E006265723A20000956616C75653A20000A20
:1035AE005061796C6F61643A20000A5061796C6FDA
:1035BE0061644C454E3A20000A23232323232345DE
:1035CE004E442323232323000A3D3D3D3D41434BDF
:1035DE002053454E543D3D3D3D0A000A3D3D3D3D87
:1035EE004D45535341474520524543454956454461
:1035FE003D3D3D3D3D0A00343267726164690074A1
:10360E00656D7000526563656976656420706163EF
:10361E006B6574206F662073697A65200046726F41
:10362E006D20002E002C20706F72743A20000A4616
:10363E004154544F0A004541868600000000FB07A6
:10364E00F4099807C707AB07E907000000008909CE
:10365E0000000000F80D830EF40D590E200E0E0E14
:10366E00090FA50E9D0E580F990EBA0E3A0ED90DD2
:04367E00E00DF00D5E
:00000001FF
